:020000040800F2
:1000000000500020A51800084118000849180008F1
:100010005118000859180008611800080000000075
:100020000000000000000000000000006918000847
:100030007518000800000000811800088D180008DD
:10004000ED180008ED180008ED180008ED1800087C
:10005000ED180008ED180008ED180008ED1800086C
:10006000ED180008ED180008ED180008ED1800085C
:10007000ED180008ED180008ED180008ED1800084C
:10008000ED180008ED180008ED180008ED1800083C
:10009000ED180008ED180008ED180008ED1800082C
:1000A000ED180008ED180008ED180008ED1800081C
:1000B000ED180008ED180008ED180008ED1800080C
:1000C000ED180008ED180008ED180008ED180008FC
:1000D000ED180008ED180008ED180008ED180008EC
:1000E000ED180008ED180008ED18000800000000E9
:1000F0000000000000000000000000000000000000
:0C01000000000000000000005FF808F1A3
:1001100010B5054C237833B9044B13B10448AFF341
:1001200000800123237010BD70000020000000003B
:10013000C03E000808B5034B1BB103490348AFF3A9
:10014000008008BD0000000074000020C03E0008D0
:1001500081F0004102E000BF83F0004330B54FEA78
:1001600041044FEA430594EA050F08BF90EA020FE5
:100170001FBF54EA000C55EA020C7FEA645C7FEA78
:10018000655C00F0E2804FEA5454D4EB5555B8BF9B
:100190006D420CDD2C4480EA020281EA030382EA0C
:1001A000000083EA010180EA020281EA0303362D9E
:1001B00088BF30BD11F0004F4FEA01314FF4801C71
:1001C0004CEA113102D0404261EB410113F0004F83
:1001D0004FEA03334CEA133302D0524263EB43033A
:1001E00094EA050F00F0A780A4F10104D5F1200ED8
:1001F0000DDB02FA0EFC22FA05F2801841F1000133
:1002000003FA0EF2801843FA05F359410EE0A5F106
:1002100020050EF1200E012A03FA0EFC28BF4CF037
:10022000020C43FA05F3C01851EBE37101F00045ED
:1002300007D54FF0000EDCF1000C7EEB00006EEBFA
:100240000101B1F5801F1BD3B1F5001F0CD3490884
:100250005FEA30004FEA3C0C04F101044FEA4452DB
:1002600012F5800F80F09A80BCF1004F08BF5FEA62
:10027000500C50F1000041EB045141EA050130BD42
:100280005FEA4C0C404141EB0101013C28BFB1F554
:10029000801FE9D291F0000F04BF01460020B1FA9F
:1002A00081F308BF2033A3F10B03B3F120020CDA72
:1002B0000C3208DD02F1140CC2F10C0201FA0CF050
:1002C00021FA02F10CE002F11402D8BFC2F1200CB5
:1002D00001FA02F120FA0CFCDCBF41EA0C0190406B
:1002E000E41AA2BF01EB0451294330BD6FEA0404B4
:1002F0001F3C1CDA0C340EDC04F11404C4F120029F
:1003000020FA04F001FA02F340EA030021FA04F3B0
:1003100045EA030130BDC4F10C04C4F1200220FA07
:1003200002F001FA04F340EA0300294630BD21FA45
:1003300004F0294630BD94F0000F83F4801306BF0B
:1003400081F480110134013D4EE77FEA645C18BFFF
:100350007FEA655C29D094EA050F08BF90EA020F96
:1003600005D054EA000C04BF1946104630BD91EA8E
:10037000030F1EBF0021002030BD5FEA545C05D191
:100380004000494128BF41F0004130BD14F58004D0
:100390003CBF01F5801130BD01F0004545F0FE4144
:1003A00041F470014FF0000030BD7FEA645C1ABF79
:1003B000194610467FEA655C1CBF0B46024650EAB0
:1003C000013406BF52EA033591EA030F41F40021DC
:1003D00030BD00BF90F0000F04BF0021704730B562
:1003E0004FF4806404F132044FF000054FF0000137
:1003F00050E700BF90F0000F04BF0021704730B5F8
:100400004FF4806404F1320410F0004548BF4042CC
:100410004FF000013EE700BF42004FEAE2014FEA21
:1004200031014FEA02701FBF12F07F4393F07F4FFC
:1004300081F06051704732F07F4208BF704793F0FF
:100440007F4F04BF41F40021704730B54FF4607412
:1004500001F0004521F000411CE700BF50EA010215
:1004600008BF704730B54FF000050AE050EA0102BE
:1004700008BF704730B511F0004502D5404261EB2E
:1004800041014FF4806404F132045FEA915C3FF46F
:10049000D8AE4FF003025FEADC0C18BF03325FEA0C
:1004A000DC0C18BF033202EBDC02C2F1200300FABD
:1004B00003FC20FA02F001FA03FE40EA0E0021FAE2
:1004C00002F11444BDE600BF70B54FF0FF0C4CF4D0
:1004D000E06C1CEA11541DBF1CEA135594EA0C0F82
:1004E00095EA0C0F00F0DEF82C4481EA030621EABD
:1004F0004C5123EA4C5350EA013518BF52EA0335F8
:1005000041F4801143F4801338D0A0FB02CE4FF0A9
:100510000005E1FB02E506F00042E0FB03E54FF0D9
:100520000006E1FB03569CF0000F18BF4EF0010ED1
:10053000A4F1FF04B6F5007F64F5407404D25FEACD
:100540004E0E6D4146EB060642EAC62141EA555180
:100550004FEAC52040EA5E504FEACE2EB4F1FD0CC2
:1005600088BFBCF5E06F1ED8BEF1004F08BF5FEA40
:10057000500E50F1000041EB045170BD06F00046F2
:1005800046EA010140EA020081EA0301B4EB5C049F
:10059000C2BFD4EB0C0541EA045170BD41F4801197
:1005A0004FF0000E013C00F3AB8014F1360FDEBFBC
:1005B000002001F0004170BDC4F10004203C35DA98
:1005C0000C341BDC04F11404C4F1200500FA05F31B
:1005D00020FA04F001FA05F240EA020001F00042BC
:1005E00021F0004110EBD37021FA04F642EB060132
:1005F0005EEA430E08BF20EAD37070BDC4F10C045C
:10060000C4F1200500FA04F320FA05F001FA04F21F
:1006100040EA020001F0004110EBD37041F100010B
:100620005EEA430E08BF20EAD37070BDC4F1200516
:1006300000FA05F24EEA020E20FA04F301FA05F27E
:1006400043EA020321FA04F001F0004121FA04F226
:1006500020EA020000EBD3705EEA430E08BF20EAF6
:10066000D37070BD94F0000F0FD101F00046400030
:1006700041EB010111F4801F08BF013CF7D041EAB2
:10068000060195F0000F18BF704703F000465200B6
:1006900043EB030313F4801F08BF013DF7D043EA87
:1006A0000603704794EA0C0F0CEA135518BF95EA3D
:1006B0000C0F0CD050EA410618BF52EA4306D1D1C4
:1006C00081EA030101F000414FF0000070BD50EAE3
:1006D000410606BF1046194652EA430619D094EA6D
:1006E0000C0F02D150EA013613D195EA0C0F05D157
:1006F00052EA03361CBF104619460AD181EA0301AB
:1007000001F0004141F0FE4141F470014FF0000062
:1007100070BD41F0FE4141F4780170BD70B54FF0FD
:10072000FF0C4CF4E06C1CEA11541DBF1CEA13557D
:1007300094EA0C0F95EA0C0F00F0A7F8A4EB05045F
:1007400081EA030E52EA03354FEA013100F0888056
:100750004FEA03334FF0805545EA131343EA12631F
:100760004FEA022245EA111545EA10654FEA0026D4
:100770000EF000419D4208BF964244F1FD0404F58D
:10078000407402D25B084FEA3202B61A65EB0305E9
:100790005B084FEA32024FF480104FF4002CB6EBA6
:1007A000020E75EB030E22BFB61A754640EA0C0026
:1007B0005B084FEA3202B6EB020E75EB030E22BF66
:1007C000B61A754640EA5C005B084FEA3202B6EBA7
:1007D000020E75EB030E22BFB61A754640EA9C0066
:1007E0005B084FEA3202B6EB020E75EB030E22BF36
:1007F000B61A754640EADC0055EA060E18D04FEAF4
:10080000051545EA16754FEA06164FEAC30343EA93
:1008100052734FEAC2025FEA1C1CC0D111F4801F60
:100820000BD141EA00014FF000004FF0004CB6E759
:1008300011F4801F04BF01430020B4F1FD0C88BFF8
:10084000BCF5E06F3FF6AFAEB5EB030C04BFB6EB03
:10085000020C5FEA500C50F1000041EB045170BDF6
:100860000EF0004E4EEA113114EB5C04C2BFD4EB23
:100870000C0541EA045170BD41F480114FF0000EA7
:10088000013C90E645EA060E8DE60CEA135594EA23
:100890000C0F08BF95EA0C0F3FF43BAF94EA0C0F26
:1008A0000AD150EA01347FF434AF95EA0C0F7FF49B
:1008B00025AF104619462CE795EA0C0F06D152EAEF
:1008C00003353FF4FDAE1046194622E750EA4106D3
:1008D00018BF52EA43067FF4C5AE50EA41047FF4E4
:1008E0000DAF52EA43057FF4EBAE12E74FF0FF3C49
:1008F00006E000BF4FF0010C02E000BF4FF0010C1A
:100900004DF804CD4FEA410C7FEA6C5C4FEA430C92
:1009100018BF7FEA6C5C1BD001B050EA410C0CBFE1
:1009200052EA430C91EA030F02BF90EA020F002043
:10093000704710F1000F91EA030F58BF994208BFAA
:1009400090422CBFD8176FEAE37040F00100704767
:100950004FEA410C7FEA6C5C02D150EA013C07D1BE
:100960004FEA430C7FEA6C5CD6D152EA033CD3D009
:100970005DF8040B704700BF8446104662468C4603
:100980001946634600E000BF01B5FFF7B7FF002836
:1009900048BF10F1000F01BD4DF808EDFFF7F4FF5F
:1009A0000CBF012000205DF808FB00BF4DF808EDEA
:1009B000FFF7EAFF34BF012000205DF808FB00BF0D
:1009C0004DF808EDFFF7E0FF94BF012000205DF82F
:1009D00008FB00BF4DF808EDFFF7CEFF94BF0120E4
:1009E00000205DF808FB00BF4DF808EDFFF7C4FFDD
:1009F00034BF012000205DF808FB00BF4FEA410C26
:100A00007FEA6C5C02D150EA013C0AD14FEA430C08
:100A10007FEA6C5C02D152EA033C02D14FF0000045
:100A200070474FF0010070474FEA4102B2F1E043D6
:100A300024BFB3F5001CDCF1FE5C0DD901F0004CC5
:100A40004FEAC0024CEA5070B2F1004F40EB830015
:100A500008BF20F00100704711F0804F21D113F141
:100A60003872BCBF01F00040704741F480114FEA7A
:100A70005252C2F11802C2F1200C10FA0CF320FA03
:100A800002F018BF40F001004FEAC1234FEAD32320
:100A900003FA0CFC40EA0C0023FA02F34FEA43038A
:100AA000CCE77FEA625307D150EA01331EBF4FF013
:100AB000FE4040F44000704701F0004040F0FE402E
:100AC00040F40000704700BF80F0004002E000BF2B
:100AD00081F0004142001FBF5FEA410392EA030F29
:100AE0007FEA226C7FEA236C6AD04FEA1262D2EB73
:100AF0001363C1BFD218414048404140B8BF5B4278
:100B0000192B88BF704710F0004F40F4000020F010
:100B10007F4018BF404211F0004F41F4000121F026
:100B20007F4118BF494292EA030F3FD0A2F1010270
:100B300041FA03FC10EB0C00C3F1200301FA03F1AE
:100B400000F0004302D5494260EB4000B0F5000FD1
:100B500013D3B0F1807F06D340084FEA310102F190
:100B60000102FE2A51D2B1F1004F40EBC25008BF42
:100B700020F0010040EA03007047490040EB00000C
:100B8000013A28BFB0F5000FEDD2B0FA80FCACF10D
:100B9000080CB2EB0C0200FA0CF0AABF00EBC2503A
:100BA00052421843BCBFD0401843704792F0000F28
:100BB00081F4000106BF80F400000132013BB5E77B
:100BC0004FEA41037FEA226C18BF7FEA236C21D0F1
:100BD00092EA030F04D092F0000F08BF0846704756
:100BE00090EA010F1CBF0020704712F07F4F04D124
:100BF000400028BF40F00040704712F100723CBF37
:100C000000F50000704700F0004343F0FE4040F460
:100C1000000070477FEA226216BF08467FEA23631E
:100C20000146420206BF5FEA412390EA010F40F409
:100C3000800070474FF0000304E000BF10F0004355
:100C400048BF40425FEA000C08BF704743F096433C
:100C500001464FF000001CE050EA010208BF704757
:100C60004FF000030AE000BF50EA010208BF7047DE
:100C700011F0004302D5404261EB41015FEA010CF3
:100C800002BF84460146002043F0B64308BFA3F1EB
:100C90008053A3F50003BCFA8CF2083AA3EBC253CD
:100CA00010DB01FA02FC634400FA02FCC2F12002EC
:100CB000BCF1004F20FA02F243EB020008BF20F023
:100CC0000100704702F1200201FA02FCC2F1200289
:100CD00050EA4C0021FA02F243EB020008BF20EA7E
:100CE000DC7070474FF0FF0C1CEAD0521EBF1CEAAC
:100CF000D15392EA0C0F93EA0C0F6FD01A4480EA9A
:100D0000010C400218BF5FEA41211ED04FF0006382
:100D100043EA501043EA5111A0FB01310CF00040AE
:100D2000B1F5000F3EBF490041EAD3715B0040EAD4
:100D3000010062F17F02FD2A1DD8B3F1004F40EBA4
:100D4000C25008BF20F00100704790F0000F0CF077
:100D5000004C08BF49024CEA502040EA51207F3A3B
:100D6000C2BFD2F1FF0340EAC250704740F4000016
:100D70004FF00003013A5DDC12F1190FDCBF00F007
:100D800000407047C2F10002410021FA02F1C2F1B5
:100D9000200200FA02FC5FEA310040F1000053EA51
:100DA0004C0308BF20EADC70704792F0000F00F09F
:100DB000004C02BF400010F4000F013AF9D040EAA5
:100DC0000C0093F0000F01F0004C02BF490011F439
:100DD000000F013BF9D041EA0C018FE70CEAD15337
:100DE00092EA0C0F18BF93EA0C0F0AD030F0004CB7
:100DF00018BF31F0004CD8D180EA010000F000406B
:100E0000704790F0000F17BF90F0004F084691F028
:100E1000000F91F0004F14D092EA0C0F01D1420262
:100E20000FD193EA0C0F03D14B0218BF084608D12B
:100E300080EA010000F0004040F0FE4040F4000075
:100E4000704740F0FE4040F4400070474FF0FF0C08
:100E50001CEAD0521EBF1CEAD15392EA0C0F93EA4F
:100E60000C0F69D0A2EB030280EA010C49024FEAA1
:100E7000402037D04FF0805343EA111143EA10135A
:100E80000CF000408B4238BF5B0042F17D024FF412
:100E9000000C8B4224BF5B1A40EA0C00B3EB510FED
:100EA00024BFA3EB510340EA5C00B3EB910F24BFD6
:100EB000A3EB910340EA9C00B3EBD10F24BFA3EB5B
:100EC000D10340EADC001B0118BF5FEA1C1CE0D123
:100ED000FD2A3FF650AF8B4240EBC25008BF20F0D6
:100EE000010070470CF0004C4CEA50207F32C2BF2A
:100EF000D2F1FF0340EAC250704740F400004FF0C7
:100F00000003013A37E792F0000F00F0004C02BFF7
:100F1000400010F4000F013AF9D040EA0C0093F0C1
:100F2000000F01F0004C02BF490011F4000F013B1B
:100F3000F9D041EA0C0195E70CEAD15392EA0C0F83
:100F400008D142027FF47DAF93EA0C0F7FF470AFBB
:100F5000084676E793EA0C0F04D14B023FF44CAFFE
:100F600008466EE730F0004C18BF31F0004CCAD193
:100F700030F000427FF45CAF31F000437FF43CAFCF
:100F80005FE700BF4FF0FF3C06E000BF4FF0010CF1
:100F900002E000BF4FF0010C4DF804CD4FEA4002D3
:100FA0004FEA41037FEA226C18BF7FEA236C11D01D
:100FB00001B052EA530C18BF90EA010F58BFB2EBD0
:100FC000030088BFC81738BF6FEAE17018BF40F050
:100FD000010070477FEA226C02D15FEA402C05D104
:100FE0007FEA236CE4D15FEA412CE1D05DF8040B89
:100FF000704700BF844608466146FFE70FB5FFF71C
:10100000C9FF002848BF10F1000F0FBD4DF808EDD3
:10101000FFF7F4FF0CBF012000205DF808FB00BFC4
:101020004DF808EDFFF7EAFF34BF012000205DF81E
:1010300008FB00BF4DF808EDFFF7E0FF94BF01206B
:1010400000205DF808FB00BF4DF808EDFFF7D2FF68
:1010500094BF012000205DF808FB00BF4DF808EDAB
:10106000FFF7C8FF34BF012000205DF808FB00BF78
:1010700042000ED2B2F1FE4F0BD34FF09E03B3EB02
:10108000126209D44FEA002343F0004323FA02F02E
:1010900070474FF00000704712F1610F01D142021A
:1010A00002D14FF0FF3070474FF00000704700BF93
:1010B00080B588B004AF0346FB710B46BB71134685
:1010C0007B71FB799AB20A2302930123019307F102
:1010D0000F03009301238021194801F035F97B7932
:1010E000002B0DD1BB79012202FA03F35BB2DB4383
:1010F0005AB2FB7B5BB213405BB2DBB2FB730AE01C
:10110000BB79012202FA03F35AB2FB7B5BB21343B1
:101110005BB2DBB2FB73FB799AB20A230293012321
:10112000019307F10F03009301238021044801F08C
:1011300011F8012000F03EFC00BF1037BD4680BD15
:101140008C00002080B588B004AF0346FB80FB888C
:101150001B03134A92FBF3F3DBB2013BDBB2FB73DD
:10116000012204210020FFF7A3FF0A230293012399
:10117000019307F10F0300930123FE228021094808
:1011800000F0E8FF002204210020FFF791FF012278
:1011900007210020FFF78CFF00BF1037BD4680BD40
:1011A00040787D018C00002080B582B000AF0346FE
:1011B000FB80FB881846FFF7C5FF012205210020B0
:1011C000FFF776FF00BF0837BD4680BD80B588B009
:1011D00004AF0346FB710B46BB8013467B80FB7953
:1011E0009B00DBB20633FB73BB88DBB23B72BB8870
:1011F0001B0A9BB2DBB27B727B88DBB2BB727B8843
:101200001B0A9BB2DBB2FB72FB7B9AB20A230293EE
:101210000423019307F1080300930123802103486D
:1012200000F098FF00BF1037BD4680BD8C00002045
:1012300080B584B000AF03463960FB714FF0000108
:101240003868FFF7EDFE0346002B02D04FF0000395
:101250003B6021493868FFF701FF0346002B01D0AE
:101260001D4B3B603868FFF7D7F817A3D3E900237D
:10127000FFF72AF902460B46104619464FF00002C6
:10128000164BFFF74BFA02460B461046194610A3C1
:10129000D3E90023FEF762FF02460B4610461946CB
:1012A000FFF7C2FB0346FB60F868FFF7E1FE034669
:1012B0009AB2FB7900211846FFF788FF00BF10376C
:1012C000BD4680BDAFF3008000000000009879406B
:1012D0009A99999999995940000034430080664041
:1012E00080B586B004AF4FF47A7302930123019363
:1012F000FB1D009301237522D021234801F024F81F
:10130000FB79682B3BD10023BB714FF47A730293B6
:1013100001230193BB1D009301236B22D0211A48A6
:1013200000F018FF0723BB714FF47A730293012377
:101330000193BB1D009301231922D021124800F014
:1013400009FF0023BB714FF47A73029301230193C9
:10135000BB1D009301231B22D0210B4800F0FAFE95
:101360000023BB714FF47A73029301230193BB1DD9
:10137000009301231C22D021034800F0EBFE00BFA4
:101380000837BD4680BD00BF8C00002080B588B006
:1013900004AF4FF47A730293062301933B1D00932D
:1013A00001233B22D021244800F0CEFF3B791B02D1
:1013B0001AB27B791BB21343FB81BB791B021AB2B1
:1013C000FB791BB21343BB813B7A1B021AB27B7AB7
:1013D0001BB213437B81B7F90E301846FFF72EFC82
:1013E00003464FF08D411846FFF730FD03461A467D
:1013F000124B1A60B7F90C301846FFF71FFC034672
:101400004FF08D411846FFF721FD03461A460C4B5D
:101410001A60B7F90A301846FFF710FC03464FF080
:101420008D411846FFF712FD03461A46054B1A6018
:1014300000BF1037BD4680BD8C000020E0000020BA
:10144000E4000020E800002080B588B004AF4FF42D
:101450007A730293062301933B1D009301234322D9
:10146000D021154800F070FF3B791B021AB27B793E
:101470001BB21343FB81BB791B021AB2FB791BB26F
:101480001343BB813B7A1B021AB27B7A1BB2134314
:101490007B81B7F90A301846FFF7D0FB03460749AE
:1014A0001846FFF7D3FC03461A46054B1A6000BFE7
:1014B0001037BD4680BD00BF8C00002000000343F4
:1014C000EC00002000000000F0B585B000AF00F097
:1014D0000FFA00F0A7F800F00FF900F0DFF8FFF7BF
:1014E000FFFE3220FFF760FEFFF750FFFFF7ACFF73
:1014F000474B1B681846FEF78FFF04460D46454BC9
:101500001B681846FEF788FF02460B462046294610
:1015100002F070F94FF000023F4BFEF7D5FF024694
:101520000B461046194638A3D3E90023FFF7F6F817
:1015300002460B4610461946FFF776FA0346FB6053
:10154000364B1B6883F000431846FEF765FF0446E0
:101550000D462F4B1B682E4A126811461846FFF79E
:10156000C1FB03461E462B4B1B682A4A12681146D4
:101570001846FFF7B7FB034619463046FFF7AAFAAD
:1015800003461846FEF748FF02460B46104619462A
:1015900002F032F902460B462046294602F02AF9AB
:1015A0004FF000021C4BFEF78FFF02460B46104621
:1015B000194615A3D3E90023FFF7B0F802460B46FE
:1015C00010461946FFF730FA0346BB60144B1B6800
:1015D0007B60F9680020FFF72BFEB9680120FFF758
:1015E00027FE79680220FFF723FEF9680320FFF742
:1015F0001FFEB9680420FFF71BFE642000F0DAF933
:1016000000BF71E7AFF30080182D4454FB2109405F
:10161000E4000020E800002000806640E000002098
:10162000EC00002080B590B000AF07F1180328222D
:101630000021184602F0ACF83B1D00221A605A60E7
:101640009A60DA601A610223BB610123BB62102336
:10165000FB6200237B6307F11803184601F09CFC32
:101660000346002B01D000F075F80F237B600023A8
:10167000BB600023FB6000233B6100237B613B1DBB
:101680000021184601F00AFF0346002B01D000F0AC
:1016900061F800BF4037BD4680BD000080B500AF97
:1016A000124B134A1A60114B124A5A600F4B002218
:1016B0009A600E4B0022DA600C4B4FF480421A61A4
:1016C0000A4B00225A61094B00229A61074B002203
:1016D000DA61064B00221A62044800F0F7FB034669
:1016E000002B01D000F036F800BF80BD8C00002038
:1016F00000540040A086010080B485B000AF144BB8
:101700009B69134A43F020039361114B9B6903F0DB
:101710002003FB60FB680E4B9B690D4A43F00403FA
:1017200093610B4B9B6903F00403BB60BB68084BE0
:101730009B69074A43F008039361054B9B6903F0DB
:1017400008037B607B6800BF1437BD4680BC7047D0
:101750000010024080B400AF72B600BF00BFFDE7CA
:1017600080B485B000AF154B9B69144A43F0010368
:101770009361124B9B6903F00103BB60BB680F4B85
:10178000DB690E4A43F08053D3610C4BDB6903F0F5
:1017900080537B607B680A4B5B68FB60FB6823F0CF
:1017A000E063FB60FB6843F00073FB60044AFB6886
:1017B000536000BF1437BD4680BC70470010024024
:1017C0000000014080B588B000AF786007F11003D9
:1017D00000221A605A609A60DA607B681B68154ABA
:1017E000934223D1144B9B69134A43F0080393613E
:1017F000114B9B6903F00803FB60FB68C0233B614E
:1018000012237B610323FB6107F1100319460B4888
:1018100000F0D8F9084BDB69074A43F40013D361A1
:10182000054BDB6903F40013BB60BB6800BF2037C6
:10183000BD4680BD0054004000100240000C014035
:1018400080B400AF00BFFDE780B400AF00BFFDE78C
:1018500080B400AF00BFFDE780B400AF00BFFDE77C
:1018600080B400AF00BFFDE780B400AF00BFBD464D
:1018700080BC704780B400AF00BFBD4680BC7047DD
:1018800080B400AF00BFBD4680BC704780B500AFDC
:1018900000F074F800BF80BD80B400AF00BFBD464B
:1018A00080BC7047FFF7F8FF0B480C490C4A002337
:1018B00002E0D458C4500433C4188C42F9D3094A06
:1018C000094C002301E013600432A242FBD301F073
:1018D0006DFFFFF7F9FD7047000000207000002049
:1018E000803F0008700000202C020020FEE700006E
:1018F00080B500AF084B1B68074A43F01003136024
:10190000032000F02BF90F2000F008F8FFF728FF64
:101910000023184680BD00BF0020024080B582B081
:1019200000AF7860124B1A68124B1B7819464FF4BF
:101930007A73B3FBF1F3B2FBF3F3184600F035F919
:101940000346002B01D001230EE07B680F2B0AD841
:10195000002279684FF0FF3000F00BF9064A7B68EF
:101960001360002300E0012318460837BD4680BD00
:1019700000000020080000200400002080B400AF18
:10198000054B1B781A46054B1B681344034A13602A
:1019900000BFBD4680BC704708000020F00000205A
:1019A00080B400AF024B1B681846BD4680BC704730
:1019B000F000002080B584B000AF7860FFF7F0FF42
:1019C000B8607B68FB60FB68B3F1FF3F05D00A4B52
:1019D0001B781A46FB681344FB6000BFFFF7E0FF6B
:1019E0000246BB68D31AFA689A42F7D800BF00BF14
:1019F0001037BD4680BD00BF0800002080B485B010
:101A000000AF78607B6803F00703FB600C4BDB687A
:101A1000BB60BA684FF6FF031340BB60FB681A0255
:101A2000BB68134343F0BF6343F40033BB60044A15
:101A3000BB68D36000BF1437BD4680BC704700BF91
:101A400000ED00E080B400AF044BDB681B0A03F03C
:101A500007031846BD4680BC704700BF00ED00E09C
:101A600080B483B000AF03463960FB7197F907304B
:101A7000002B0ADB3B68DAB20C4997F907301201F8
:101A8000D2B20B4483F800230AE03B68DAB208497B
:101A9000FB7903F00F03043B1201D2B20B441A7618
:101AA00000BF0C37BD4680BC704700BF00E100E0BE
:101AB00000ED00E080B489B000AFF860B9607A60F2
:101AC000FB6803F00703FB61FB69C3F10703042B09
:101AD00028BF0423BB61FB690433062B02D9FB69D1
:101AE000033B00E000237B614FF0FF32BB6902FA49
:101AF00003F3DA43BB681A407B699A404FF0FF3129
:101B00007B6901FA03F3D9437B680B401343184602
:101B10002437BD4680BC704780B582B000AF786086
:101B20007B68013BB3F1807F01D301230FE00A4AB8
:101B30007B68013B53600F214FF0FF30FFF790FFB0
:101B4000054B00229A60044B07221A6000231846B6
:101B50000837BD4680BD00BF10E000E080B582B010
:101B600000AF78607868FFF749FF00BF0837BD46CF
:101B700080BD80B586B000AF0346B9607A60FB7364
:101B800000237B61FFF75EFF78617A68B968786946
:101B9000FFF790FF024697F90F3011461846FFF7FE
:101BA0005FFF00BF1837BD4680BD80B582B000AF73
:101BB00078607868FFF7B0FF034618460837BD46DF
:101BC00080BD000080B48BB000AF78603960002326
:101BD0007B6200233B6269E101227B6A02FA03F324
:101BE000FB613B681B68FA691340BB61BA69FB691A
:101BF0009A4240F058813B685B689A4A93425ED0B3
:101C0000984A934275D8984A934258D0964A93423C
:101C10006FD8964A934252D0944A934269D8944AD4
:101C200093424CD0924A934263D8924A934246D010
:101C3000904A93425DD8122B2AD8122B59D801A270
:101C400052F823F0BF1C0008991C0008AB1C0008C8
:101C5000ED1C0008F31C0008F31C0008F31C00082E
:101C6000F31C0008F31C0008F31C0008F31C000818
:101C7000F31C0008F31C0008F31C0008F31C000808
:101C8000F31C0008F31C0008A11C0008B51C000888
:101C9000794A934213D02CE03B68DB683B6229E031
:101CA0003B68DB6804333B6224E03B68DB68083355
:101CB0003B621FE03B68DB680C333B621AE03B6829
:101CC0009B68002B02D104233B6213E03B689B68B6
:101CD000012B05D108233B627B68FA691A6109E090
:101CE00008233B627B68FA695A6103E000233B6288
:101CF00000E000BFBB69FF2B01D87B6801E07B6877
:101D000004337B61BB69FF2B02D87B6A9B0002E036
:101D10007B6A083B9B003B617B691A680F213B692A
:101D200001FA03F3DB431A40396A3B6901FA03F312
:101D30001A437B691A603B685B6803F08053002B91
:101D400000F0B1804D4B9B694C4A43F00103936115
:101D50004A4B9B6903F00103BB60BB68484A7B6A3E
:101D60009B08023352F82330FB607B6A03F00303C5
:101D70009B000F2202FA03F3DB43FA681340FB6077
:101D80007B68404A934213D07B683F4A93420DD010
:101D90007B683E4A934207D07B683D4A934201D11B
:101DA000032306E0042304E0022302E0012300E011
:101DB00000237A6A02F0030292009340FA68134308
:101DC000FB602F497B6A9B080233FA6841F82320A5
:101DD0003B685B6803F48013002B06D02D4B9A6898
:101DE0002C49BB6913438B6006E02A4B9A68BB6998
:101DF000DB43284913408B603B685B6803F40013A6
:101E0000002B06D0234BDA682249BB691343CB6011
:101E100006E0204BDA68BB69DB431E491340CB6008
:101E20003B685B6803F40033002B06D0194B5A68FB
:101E30001849BB6913434B6006E0164B5A68BB69EF
:101E4000DB43144913404B603B685B6803F4803309
:101E5000002B21D00F4B1A680E49BB6913430B604E
:101E600021E000BF000032100000311000002210FD
:101E7000000021100000121000001110001002409C
:101E80000000014000080140000C0140001001402A
:101E900000140140000401400B4B1A68BB69DB438E
:101EA000094913400B607B6A01337B623B681A6807
:101EB0007B6A22FA03F3002B7FF48EAE00BF00BFD3
:101EC0002C37BD4680BC70470004014080B584B00B
:101ED00000AF78607B68002B01D101232BE17B6888
:101EE00093F83D30DBB2002B06D17B68002283F8EB
:101EF0003C207868FFF766FC7B68242283F83D204D
:101F00007B681B681A687B681B6822F001021A60F4
:101F10007B681B681A687B681B6842F400421A6081
:101F20007B681B681A687B681B6822F400421A6091
:101F300001F0FCFBF8607B685B68814A934207D83C
:101F4000FB68804A934294BF01230023DBB206E082
:101F5000FB687D4A934294BF01230023DBB2002B30
:101F600001D00123E7E0FB68784AA2FB03239B0C26
:101F7000BB607B681B685B6823F03F017B681B6864
:101F8000BA680A435A607B681B681B6A23F03F01EA
:101F90007B685B686A4A934202D8BB68013309E0F8
:101FA000BB684FF4967202FB03F3694AA2FB03235A
:101FB0009B0901337A6812680B4313627B681B68C4
:101FC000DB6923F44F4222F0FF027B685B685C49C7
:101FD0008B4219D8FB68591E7B685B685B00B1FBBC
:101FE000F3F3591C40F6FC730B40002B0AD0FB683E
:101FF000591E7B685B685B00B1FBF3F30133C3F3ED
:102000000B0351E004234FE07B689B68002B11D148
:10201000FB68581E7B6859680B465B000B44B0FB9D
:10202000F3F30133C3F30B03002B0CBF0123002395
:10203000DBB212E0FB68581E7B6859680B469B00B8
:102040000B4499000B44B0FBF3F30133C3F30B03D0
:10205000002B0CBF01230023DBB2002B01D0012396
:1020600022E07B689B68002B0ED1FB68581E7B68C2
:1020700059680B465B000B44B0FBF3F30133C3F329
:102080000B0343F400430FE0FB68581E7B6859685C
:102090000B469B000B4499000B44B0FBF3F3013358
:1020A000C3F30B0343F44043796809681343CB61DE
:1020B0007B681B681B6823F0C0017B68DA697B685A
:1020C0001B6A1A437B681B680A431A607B681B689B
:1020D0009B6823F4034323F0FF037A6811697A684D
:1020E000D26811437A6812680B4393607B681B685F
:1020F000DB6823F0FF017B685A697B689B691A43A0
:102100007B681B680A43DA607B681B681A687B6817
:102110001B6842F001021A607B6800221A647B6827
:10212000202283F83D207B6800221A637B6800220E
:1021300083F83E20002318461037BD4680BD00BFFF
:10214000A08601007F841E00FF083D0083DE1B4344
:10215000D34D621080B588B002AFF86008461146D2
:102160001A4603467B810B463B811346FB80FFF7F3
:1021700017FC7861FB6893F83D30DBB2202B40F010
:10218000D9807B690093192301226D49F86800F01A
:10219000CDFC0346002B01D00223CCE0FB6893F872
:1021A0003C30012B01D10223C5E0FB68012283F8FA
:1021B0003C20FB681B681B6803F00103012B07D060
:1021C000FB681B681A68FB681B6842F001021A6012
:1021D000FB681B681A68FB681B6822F400621A60BF
:1021E000FB68212283F83D20FB68402283F83E20D3
:1021F000FB6800221A64FB683A6A5A62FB68BA8C70
:102200005A85FB685B8D9AB2FB681A85FB684D4A5C
:10221000DA62F8883A8979897B690193BB6A00930D
:102220000346F86800F004FB0346002B52D001235C
:1022300081E07A69B96AF86800F092FD0346002BE4
:102240000DD0FB681B6C042B07D1FB681B681A6858
:10225000FB681B6842F400721A6001236BE0FB68A4
:102260005B6A1A78FB681B681A61FB685B6A5A1C18
:10227000FB685A62FB681B8D013B9AB2FB681A85AA
:10228000FB685B8D9BB2013B9AB2FB685A85FB6889
:102290001B685B6903F00403042B1BD1FB681B8DD7
:1022A000002B17D0FB685B6A1A78FB681B681A6101
:1022B000FB685B6A5A1CFB685A62FB681B8D013B1A
:1022C0009AB2FB681A85FB685B8D9BB2013B9AB2A0
:1022D000FB685A85FB681B8D002BAAD17A69B96A05
:1022E000F86800F085FD0346002B0DD0FB681B6CE1
:1022F000042B07D1FB681B681A68FB681B6842F453
:1023000000721A60012316E0FB681B681A68FB68FC
:102310001B6842F400721A60FB68202283F83D209B
:10232000FB68002283F83E20FB68002283F83C20F3
:10233000002300E0022318461837BD4680BD00BFC9
:10234000020010000000FFFF80B58CB002AFF86003
:10235000084611461A4603467B810B463B811346CD
:10236000FB8000233B62FFF71BFB7862FB6893F85E
:102370003D30DBB2202B40F050827B6A0093192362
:1023800001228249F86800F0D1FB0346002B01D0FE
:10239000022343E2FB6893F83C30012B01D1022376
:1023A0003CE2FB68012283F83C20FB681B681B6849
:1023B00003F00103012B07D0FB681B681A68FB6858
:1023C0001B6842F001021A60FB681B681A68FB6810
:1023D0001B6822F400621A60FB68222283F83D2009
:1023E000FB68402283F83E20FB6800221A64FB68E9
:1023F0003A6B5A62FB68BA8E5A85FB685B8D9AB25B
:10240000FB681A85FB68624ADA62F8883A8979893A
:102410007B6A0193BB6B00930346F86800F09EFA59
:102420000346002B01D00123F8E1FB681B8D002B34
:1024300013D10023FB61FB681B685B69FB61FB68D0
:102440001B689B69FB61FB69FB681B681A68FB687A
:102450001B6842F400721A60CCE1FB681B8D012BF3
:102460001ED1FB681B681A68FB681B6822F4806237
:102470001A6072B600BF0023BB61FB681B685B6912
:10248000BB61FB681B689B69BB61BB69FB681B6820
:102490001A68FB681B6842F400721A6062B635E085
:1024A000FB681B8D022B1ED1FB681B681A68FB683A
:1024B0001B6842F400621A6072B600BF00237B61A1
:1024C000FB681B685B697B61FB681B689B697B61C0
:1024D0007B69FB681B681A68FB681B6822F48062D2
:1024E0001A6062B612E0FB681B681A68FB681B681A
:1024F00042F480621A6000233B61FB681B685B69E1
:102500003B61FB681B689B693B613B6972E1FB684F
:102510001B8D032B00F21F81FB681B8D012B23D128
:102520007A6AB96BF86800F0ABFC0346002B01D067
:10253000012373E1FB681B681A69FB685B6AD2B20E
:102540001A70FB685B6A5A1CFB685A62FB681B8D39
:10255000013B9AB2FB681A85FB685B8D9BB2013B1D
:102560009AB2FB685A8545E1FB681B8D022B52D15C
:102570007B6A0093BB6B00220649F86800F0D6FA2C
:102580000346002B08D0012348E100BF02001000E1
:102590000000FFFF0400010072B600BFFB681B686B
:1025A0001A68FB681B6842F400721A60FB681B68BB
:1025B0001A69FB685B6AD2B21A70FB685B6A5A1CC4
:1025C000FB685A62FB681B8D013B9AB2FB681A8557
:1025D000FB685B8D9BB2013B9AB2FB685A8562B681
:1025E00000BFFB681B681A69FB685B6AD2B21A708D
:1025F000FB685B6A5A1CFB685A62FB681B8D013BD7
:102600009AB2FB681A85FB685B8D9BB2013B9AB25C
:10261000FB685A85EEE07B6A0093BB6B0022814920
:10262000F86800F083FA0346002B01D00123F5E09F
:10263000FB681B681A68FB681B6822F480621A60DA
:1026400072B600BFFB681B681A69FB685B6AD2B28E
:102650001A70FB685B6A5A1CFB685A62FB681B8D28
:10266000013B9AB2FB681A85FB685B8D9BB2013B0C
:102670009AB2FB685A856C4B1B68DB086B4AA2FB5D
:1026800003231A0A13469B001344DA00D31A3B6251
:102690003B6A013B3B623B6A002B18D1FB6800227E
:1026A0001A63FB68202283F83D20FB68002283F830
:1026B0003E20FB681B6C43F02002FB681A6462B684
:1026C00000BFFB68002283F83C200123A6E0FB68E2
:1026D0001B685B6903F00403042BD9D1FB681B68FA
:1026E0001A68FB681B6842F400721A60FB681B687A
:1026F0001A69FB685B6AD2B21A70FB685B6A5A1C83
:10270000FB685A62FB681B8D013B9AB2FB681A8515
:10271000FB685B8D9BB2013B9AB2FB685A8562B63F
:1027200000BFFB681B681A69FB685B6AD2B21A704B
:10273000FB685B6A5A1CFB685A62FB681B8D013B95
:102740009AB2FB681A85FB685B8D9BB2013B9AB21B
:10275000FB685A854EE07A6AB96BF86800F090FB26
:102760000346002B01D0012358E0FB681B681A695F
:10277000FB685B6AD2B21A70FB685B6A5A1CFB6822
:102780005A62FB681B8D013B9AB2FB681A85FB6895
:102790005B8D9BB2013B9AB2FB685A85FB681B6854
:1027A0005B6903F00403042B24D1FB681B8D032B0E
:1027B00007D1FB681B681A68FB681B6822F48062FB
:1027C0001A60FB681B681A69FB685B6AD2B21A70F0
:1027D000FB685B6A5A1CFB685A62FB681B8D013BF5
:1027E0009AB2FB681A85FB685B8D9BB2013B9AB27B
:1027F000FB685A85FB681B8D002B7FF488AEFB6855
:10280000202283F83D20FB68002283F83E20FB68ED
:10281000002283F83C20002300E0022318462837DA
:10282000BD4680BD040001000000002089B5F814F9
:1028300080B588B002AFF860084611461A460346D4
:102840007B810B463B811346FB80FB681B681A6843
:10285000FB681B6842F480721A607B6A00933B6AD3
:1028600000224FF00111F86800F060F90346002BD8
:102870000DD0FB681B681B6803F48073B3F5807F81
:1028800003D1FB684FF400721A6403235FE07B8975
:10289000DBB21A46FB681B6802F0FE021A617B6A13
:1028A0003A6A2D49F86800F0BBF90346002B01D0C5
:1028B00001234CE000237B61FB681B685B697B6143
:1028C000FB681B689B697B617B697A6A396AF86877
:1028D00000F046FA0346002B0DD0FB681B6C042B5E
:1028E00007D1FB681B681A68FB681B6842F400721A
:1028F0001A6001232BE0FB88012B05D13B89DAB25A
:10290000FB681B681A6121E03B891B0A9BB2DAB2A3
:10291000FB681B681A617A6A396AF86800F020FA65
:102920000346002B0DD0FB681B6C042B07D1FB6802
:102930001B681A68FB681B6842F400721A60012366
:1029400005E03B89DAB2FB681B681A610023184670
:102950001837BD4680BD00BF0200010080B588B0B9
:1029600002AFF860084611461A4603467B810B46C3
:102970003B811346FB80FB681B681A68FB681B6879
:1029800042F480621A60FB681B681A68FB681B6867
:1029900042F480721A607B6A00933B6A00224FF017
:1029A0000111F86800F0C2F80346002B0DD0FB6857
:1029B0001B681B6803F48073B3F5807F03D1FB6849
:1029C0004FF400721A640323AAE07B89DBB21A4633
:1029D000FB681B6802F0FE021A617B6A3A6A524980
:1029E000F86800F01DF90346002B01D0012397E0A1
:1029F00000237B61FB681B685B697B61FB681B686C
:102A00009B697B617B697A6A396AF86800F0A8F98A
:102A10000346002B0DD0FB681B6C042B07D1FB6811
:102A20001B681A68FB681B6842F400721A60012375
:102A300076E0FB88012B05D13B89DAB2FB681B6885
:102A40001A6121E03B891B0A9BB2DAB2FB681B6862
:102A50001A617A6A396AF86800F082F90346002B35
:102A60000DD0FB681B6C042B07D1FB681B681A6830
:102A7000FB681B6842F400721A60012350E03B8936
:102A8000DAB2FB681B681A617A6A396AF86800F082
:102A900067F90346002B0DD0FB681B6C042B07D194
:102AA000FB681B681A68FB681B6842F400721A60B6
:102AB000012335E0FB681B681A68FB681B6842F459
:102AC00080721A607B6A00933B6A00224FF001110A
:102AD000F86800F02BF80346002B0DD0FB681B684C
:102AE0001B6803F48073B3F5807F03D1FB684FF458
:102AF00000721A64032313E07B89DBB243F0010305
:102B0000DAB2FB681B681A617B6A3A6A0649F868A0
:102B100000F086F80346002B01D0012300E00023DB
:102B200018461837BD4680BD0200010080B584B04C
:102B300000AFF860B9603B601346FB7148E03B684A
:102B4000B3F1FF3F44D0FEF72BFF0246BB69D31A17
:102B50003A689A4202D33B68002B39D1BB681B0C00
:102B6000DBB2012B0DD1FB681B685B69DA43BB68E4
:102B700013409BB2002B0CBF01230023DBB21A468B
:102B80000CE0FB681B689B69DA43BB6813409BB28F
:102B9000002B0CBF01230023DBB21A46FB799A42BB
:102BA00016D1FB6800221A63FB68202283F83D20BF
:102BB000FB68002283F83E20FB681B6C43F0200278
:102BC000FB681A64FB68002283F83C20012323E0A1
:102BD000BB681B0CDBB2012B0DD1FB681B685B696A
:102BE000DA43BB6813409BB2002B0CBF01230023C8
:102BF000DBB21A460CE0FB681B689B69DA43BB68D2
:102C000013409BB2002B0CBF01230023DBB21A46FA
:102C1000FB799A4293D0002318461037BD4680BDF9
:102C200080B584B000AFF860B9607A603B6071E055
:102C3000FB681B685B6903F48063B3F5806F23D185
:102C4000FB681B681A68FB681B6842F400721A6014
:102C5000FB681B686FF480625A61FB6800221A638C
:102C6000FB68202283F83D20FB68002283F83E2089
:102C7000FB681B6C43F00402FB681A64FB680022CB
:102C800083F83C20012367E07B68B3F1FF3F41D02C
:102C9000FEF786FE02463B68D31A7A689A4202D350
:102CA0007B68002B36D1BB681B0CDBB2012B0CD12F
:102CB000FB681B685B69DA43BB6813409BB2002B5F
:102CC00014BF01230023DBB20BE0FB681B689B6988
:102CD000DA43BB6813409BB2002B14BF01230023CF
:102CE000DBB2002B16D0FB6800221A63FB6820229F
:102CF00083F83D20FB68002283F83E20FB681B6CB4
:102D000043F02002FB681A64FB68002283F83C2031
:102D1000012321E0BB681B0CDBB2012B0CD1FB684B
:102D20001B685B69DA43BB6813409BB2002B14BF7E
:102D300001230023DBB20BE0FB681B689B69DA43CD
:102D4000BB6813409BB2002B14BF01230023DBB2EE
:102D5000002B7FF46DAF002318461037BD4680BDB1
:102D600080B584B000AFF860B9607A6034E0F8688C
:102D700000F0E3F80346002B01D0012334E0BB68E8
:102D8000B3F1FF3F28D0FEF70BFE02467B68D31A53
:102D9000BA689A4202D3BB68002B1DD1FB681B683E
:102DA0005B6903F08003802B16D0FB6800221A6356
:102DB000FB68202283F83D20FB68002283F83E2038
:102DC000FB681B6C43F02002FB681A64FB6800225E
:102DD00083F83C20012307E0FB681B685B6903F074
:102DE0008003802BC3D1002318461037BD4680BD19
:102DF00080B584B000AFF860B9607A6034E0F868FC
:102E000000F09BF80346002B01D0012334E0BB689F
:102E1000B3F1FF3F28D0FEF7C3FD02467B68D31A0B
:102E2000BA689A4202D3BB68002B1DD1FB681B68AD
:102E30005B6903F00403042B16D0FB6800221A63BD
:102E4000FB68202283F83D20FB68002283F83E20A7
:102E5000FB681B6C43F02002FB681A64FB680022CD
:102E600083F83C20012307E0FB681B685B6903F0E3
:102E70000403042BC3D1002318461037BD4680BD80
:102E800080B584B000AFF860B9607A6049E0FB6853
:102E90001B685B6903F01003102B19D1FB681B68DA
:102EA0006FF010025A61FB6800221A63FB6820224F
:102EB00083F83D20FB68002283F83E20FB681A6CF3
:102EC000FB681A64FB68002283F83C20012330E091
:102ED000FEF766FD02467B68D31ABA689A4202D3AF
:102EE000BB68002B1DD1FB681B685B6903F04003C6
:102EF000402B16D0FB6800221A63FB68202283F85F
:102F00003D20FB68002283F83E20FB681B6C43F0E9
:102F10002002FB681A64FB68002283F83C2001232E
:102F200007E0FB681B685B6903F04003402BAED1F0
:102F3000002318461037BD4680BD80B483B000AF73
:102F400078607B681B685B6903F48063B3F5806F0E
:102F50001BD17B681B686FF480625A617B6800221A
:102F60001A637B68202283F83D207B68002283F867
:102F70003E207B681B6C43F004027B681A647B680C
:102F8000002283F83C20012300E0002318460C3780
:102F9000BD4680BC7047000080B586B000AF786049
:102FA0007B68002B01D1012372E27B681B6803F070
:102FB0000103002B00F08780924B5B6803F00C0349
:102FC000042B0CD08F4B5B6803F00C03082B12D141
:102FD0008C4B5B6803F48033B3F5803F0BD1894B96
:102FE0001B6803F40033002B6CD07B685B68002BFC
:102FF00068D101234CE27B685B68B3F5803F06D162
:10300000804B1B687F4A43F4803313602EE07B685B
:103010005B68002B0CD17B4B1B687A4A23F480330E
:103020001360784B1B68774A23F4802313601DE0FC
:103030007B685B68B3F5A02F0CD1724B1B68714A9B
:1030400043F4802313606F4B1B686E4A43F4803354
:1030500013600BE06B4B1B686A4A23F480331360E8
:10306000684B1B68674A23F4802313607B685B68A6
:10307000002B13D0FEF794FC386108E0FEF790FCBB
:1030800002463B69D31A642B01D9032300E25D4B4E
:103090001B6803F40033002BF0D014E0FEF780FC33
:1030A000386108E0FEF77CFC02463B69D31A642BCA
:1030B00001D90323ECE1534B1B6803F40033002BCD
:1030C000F0D100E000BF7B681B6803F00203002B17
:1030D00063D04C4B5B6803F00C03002B0BD0494BC7
:1030E0005B6803F00C03082B1CD1464B5B6803F4B0
:1030F0008033002B16D1434B1B6803F00203002BD7
:1031000005D07B681B69012B01D00123C0E13D4B39
:103110001B6823F0F8027B685B69DB0039491343C5
:103120000B603AE07B681B69002B20D0364B0122F4
:103130001A60FEF735FC386108E0FEF731FC024604
:103140003B69D31A022B01D90323A1E12D4B1B6844
:1031500003F00203002BF0D02A4B1B6823F0F80287
:103160007B685B69DB00274913430B6015E0264B46
:1031700000221A60FEF714FC386108E0FEF710FC2C
:1031800002463B69D31A022B01D9032380E11D4B70
:103190001B6803F00203002BF0D17B681B6803F06F
:1031A0000803002B3AD07B689B69002B19D0174B82
:1031B00001221A60FEF7F4FB386108E0FEF7F0FB2D
:1031C00002463B69D31A022B01D9032360E10D4B60
:1031D0005B6A03F00203002BF0D0012000F0BAFA82
:1031E0001CE00A4B00221A60FEF7DAFB38610FE0A0
:1031F000FEF7D6FB02463B69D31A022B08D90323FC
:1032000046E100BF001002400000424280044242FA
:10321000924B5B6A03F00203002BE9D17B681B68C9
:1032200003F00403002B00F0A6800023FB758B4BFA
:10323000DB6903F08053002B0DD1884BDB69874A93
:1032400043F08053D361854BDB6903F08053BB604F
:10325000BB680123FB75824B1B6803F48073002B52
:1032600018D17F4B1B687E4A43F480731360FEF7CE
:1032700097FB386108E0FEF793FB02463B69D31ADF
:10328000642B01D9032303E1754B1B6803F480739E
:10329000002BF0D07B68DB68012B06D16F4B1B6ADB
:1032A0006E4A43F0010313622DE07B68DB68002B5C
:1032B0000CD16A4B1B6A694A23F001031362674B06
:1032C0001B6A664A23F0040313621CE07B68DB6818
:1032D000052B0CD1614B1B6A604A43F00403136257
:1032E0005E4B1B6A5D4A43F0010313620BE05B4BCC
:1032F0001B6A5A4A23F001031362584B1B6A574A50
:1033000023F0040313627B68DB68002B15D0FEF703
:1033100047FB38610AE0FEF743FB02463B69D31ADC
:1033200041F28832934201D90323B1E04B4B1B6A2F
:1033300003F00203002BEED014E0FEF731FB3861FE
:103340000AE0FEF72DFB02463B69D31A41F28832B0
:10335000934201D903239BE0404B1B6A03F0020315
:10336000002BEED1FB7D012B05D13C4BDB693B4AA9
:1033700023F08053D3617B68DB69002B00F08780EA
:10338000364B5B6803F00C03082B61D07B68DB696C
:10339000022B46D1334B00221A60FEF701FB386145
:1033A00008E0FEF7FDFA02463B69D31A022B01D969
:1033B00003236DE0294B1B6803F00073002BF0D151
:1033C0007B681B6AB3F5803F08D1244B5B6823F40C
:1033D00000327B689B68214913434B601F4B5B683D
:1033E00023F474127B68196A7B685B6A0B431B4980
:1033F00013434B601B4B01221A60FEF7D1FA386170
:1034000008E0FEF7CDFA02463B69D31A022B01D938
:1034100003233DE0114B1B6803F00073002BF0D039
:1034200035E0104B00221A60FEF7BAFA386108E066
:10343000FEF7B6FA02463B69D31A022B01D90323E1
:1034400026E0064B1B6803F00073002BF0D11EE052
:103450007B68DB69012B07D1012319E000100240D2
:1034600000700040600042420B4B5B68FB60FB68F1
:1034700003F480327B681B6A9A4206D1FB6803F42E
:1034800070127B685B6A9A4201D0012300E000233E
:1034900018461837BD4680BD0010024080B584B084
:1034A00000AF786039607B68002B01D10123D0E048
:1034B0006A4B1B6803F007033A689A4210D9674BBE
:1034C0001B6823F0070265493B6813430B60634B9D
:1034D0001B6803F007033A689A4201D00123B8E061
:1034E0007B681B6803F00203002B20D07B681B68FD
:1034F00003F00403002B05D0594B5B68584A43F492
:10350000E06353607B681B6803F00803002B05D061
:10351000534B5B68524A43F460535360504B5B68B3
:1035200023F0F0027B689B684D4913434B607B6836
:103530001B6803F00103002B40D07B685B68012B04
:1035400007D1474B1B6803F40033002B15D101232F
:103550007FE07B685B68022B07D1414B1B6803F05F
:103560000073002B09D1012373E03D4B1B6803F06E
:103570000203002B01D101236BE0394B5B6823F080
:1035800003027B685B68364913434B60FEF708FA19
:10359000F8600AE0FEF704FA0246FB68D31A41F22B
:1035A0008832934201D9032353E02D4B5B6803F02B
:1035B0000C027B685B689B009A42EBD1274B1B682F
:1035C00003F007033A689A4210D2244B1B6823F099
:1035D000070222493B6813430B60204B1B6803F032
:1035E00007033A689A4201D0012332E07B681B68E6
:1035F00003F00403002B08D0194B5B6823F4E0624E
:103600007B68DB68164913434B607B681B6803F0DB
:103610000803002B09D0124B5B6823F460527B68CF
:103620001B69DB000E4913434B6000F021F8024692
:103630000B4B5B681B0903F00F030A49CB5C22FAB2
:1036400003F3094A1360094B1B681846FEF766F935
:10365000002318461037BD4680BD00BF0020024041
:1036600000100240D83E00080000002004000020A6
:1036700080B487B000AF0023FB600023BB60002351
:103680007B6100237B6000233B611E4B5B68FB601A
:10369000FB6803F00C03042B02D0082B03D027E0B7
:1036A000194B3B6127E0FB689B0C03F00F03174AA3
:1036B000D35C7B60FB6803F48033002B10D0114B8C
:1036C0005B685B0C03F00103114AD35CBB607B6851
:1036D0000D4A03FB02F2BB68B2FBF3F37B6104E02B
:1036E0007B680C4A02FB03F37B617B693B6102E070
:1036F000054B3B6100BF3B6918461C37BD4680BC8B
:10370000704700BF0010024000127A00F03E00082F
:10371000003F000800093D0080B400AF024B1B6869
:103720001846BD4680BC70470000002080B500AF41
:10373000FFF7F2FF0246054B5B681B0A03F0070325
:103740000349CB5C22FA03F3184680BD0010024007
:10375000E83E000880B485B000AF78600A4B1B6873
:103760000A4AA2FB03235B0A7A6802FB03F3FB60AD
:1037700000BFFB685A1EFA60002BF9D100BF00BFE2
:103780001437BD4680BC704700000020D34D621046
:1037900003460244934200D1704703F8011BF9E746
:1037A000014B1868704700BF0C00002070B5002660
:1037B0000C4D0D4C641BA410A64209D100F080FBF7
:1037C00000260A4D0A4C641BA410A64205D170BD08
:1037D00055F8043B98470136EEE755F8043B984707
:1037E0000136F2E7783F0008783F0008783F00088C
:1037F0007C3F000800F0FCB8F8B506460F4600F024
:103800001FF8324604460D463B4630463946FDF722
:10381000F5F890B90022002330463946FDF7C6F886
:1038200058B1FFF7BDFF212300220360002310469B
:103830001946FCF773FF04460D4620462946F8BD9D
:10384000674A2DE9F84F8A4306460F460B46044661
:103850000ED10246FCF738FE02460B46304639468A
:10386000FCF77CFC06460F4630463946BDE8F88F2B
:1038700000290CDC21F000420243F5D089B1024658
:10388000FCF76AFC02460B46FCF748FFEAE70A151C
:1038900015D1002109E0E30A153A6405002BFAD09E
:1038A000F7E70A46FAE75B000131D802FBD5481E6C
:1038B000121AC1F1200024FA00F003438C400026C4
:1038C000A2F2FF371621D2074FF400103246C3F39D
:1038D000130343F480135CBF5B0003EBD4734FEA24
:1038E000430358BF640003EBD4737F1064001518C2
:1038F0009D42DEBF2A185B1B3618E50F013905EB28
:1039000043034FEA44044FEA5000F0D10D464FF014
:10391000200A4FF000409A4201EB000C02DB13D169
:10392000A44511D8BCF1000F0CEB000142DA0029CC
:1039300040DB02F1010E9B1A7246A44588BF03F1D9
:10394000FF33A4EB0C0405444FEAD47CBAF1010A1E
:103950000CEB43034FEA44044FEA5000DBD11C4315
:103960001AD0204CDFF880B0D4E90001DBE9002355
:10397000FCF7F2FBD4E9008902460B464046494673
:10398000FDF71EF840B1D4E90001DBE90023B5F1F1
:10399000FF3F11D15546013672106B08F10702F155
:1039A0007F5202F5001248BF43F00043184602EB75
:1039B000075157E79646BEE7FCF7D0FBD4E90089EC
:1039C00002460B4640464946FCF7F0FF20B1A81CD2
:1039D00008BF01360235DFE76B1C23F00105DBE78A
:1039E0000000F07F68000020600000200000000060
:1039F0002DE9F84F17469046994623F000427B4246
:103A0000DFF884A13B4342EAD373534504460D4695
:103A100009D8464221F00043064343EAD67656458C
:103A20008E46834608D942464B4620462946FCF737
:103A300095FB04460D4616E009F1404606F5801652
:103A40003E4303D1BDE8F84F00F0A6B84FEAA9768F
:103A500006F0020653EA0B0B46EAD17607D1022E96
:103A600064D0032E66D020462946BDE8F88F174360
:103A700006D1BEF1000F68DA37A5D5E90045F2E7B7
:103A800052450FD1934206F1FF3607D1022E55D889
:103A90003E4B03EBC603D3E90045E4E7022E51D8C1
:103AA0003B4BF6E75345E4D09B1AB3F1747F4FEAE2
:103AB000235221DAB9F1000F01DA3C3220DB424611
:103AC0004B4620462946FCF729FE00F0F5F900F0A8
:103AD00063F804460D46012E15D0022E17D0002E95
:103AE000C1D01FA3D3E9002320462946FCF734FBAD
:103AF0001DA3D3E9002316E01DA5D5E90045EAE79B
:103B000000240025E7E705F100431D46ABE714A3B9
:103B1000D3E9002320462946FCF71EFB02460B464C
:103B200011A1D1E90001FCF717FB82E70EA5D5E949
:103B3000004598E710A5D5E9004594E710A5D5E91B
:103B4000004590E7002400258DE709A5D5E900454B
:103B500089E700BFAFF30080182D4454FB21F9BF63
:103B6000075C143326A6A13C182D4454FB210940C0
:103B7000182D4454FB21F93F182D4454FB2109C052
:103B8000182D4454FB21E93F0000F07F203F00083E
:103B9000083F0008000000002DE9F84FBC4B21F061
:103BA00000469E4204460D468B4618D9B94B9E42AC
:103BB00001D809D140B122462B4620462946FCF7C0
:103BC000CDFA04460D4606E0BBF1000F40F3238119
:103BD00093A5D5E9004520462946BDE8F88FAE4BB0
:103BE0009E4211D8A3F1DE739E420AD88EA3D3E978
:103BF0000023FCF7B3FA0022A84BFCF7F5FE0028DF
:103C0000E9D14FF0FF3A27E000F056F9A44B044603
:103C10009E420D4600F2B880A3F550239E4200F26A
:103C20009C8002460B46FCF799FA00229B4BFCF75E
:103C300093FA002206460F464FF08043204629465D
:103C4000FCF78CFA02460B4630463946FCF766FD17
:103C50004FF0000A04460D4622462B4620462946D0
:103C6000FCF732FC02460B4680468946FCF72CFCEA
:103C70006FA3D3E9002306460F46FCF725FC6EA38D
:103C8000D3E90023FCF76AFA32463B46FCF71CFCFA
:103C90006BA3D3E90023FCF761FA32463B46FCF7FD
:103CA00013FC69A3D3E90023FCF758FA32463B46DC
:103CB000FCF70AFC66A3D3E90023FCF74FFA32466F
:103CC0003B46FCF701FC64A3D3E90023FCF746FA6A
:103CD00042464B46FCF7F8FB61A3D3E9002380463C
:103CE000894630463946FCF7EFFB5FA3D3E9002352
:103CF000FCF732FA32463B46FCF7E6FB5CA3D3E91D
:103D00000023FCF729FA32463B46FCF7DDFB5AA3B9
:103D1000D3E90023FCF720FA32463B46FCF7D4FBFC
:103D200057A3D3E90023FCF717FA32463B46FCF7CA
:103D3000CBFB02460B4640464946FCF70FFA2246AB
:103D40002B46FCF7C1FBBAF1FF3F02460B4644D1BC
:103D500020462946FCF700FA33E700224F4BFCF7D8
:103D6000FBF9002206460F46204629464B4BFCF73E
:103D7000F5F902460B4630463946FCF7CFFC4FF0CA
:103D8000010A04460D4667E7464B9E421AD20022BE
:103D9000454BFCF7E1F9002206460F46204629462E
:103DA000414BFCF791FB00223C4BFCF7D7F9024654
:103DB0000B4630463946FCF7B1FC4FF0020A044688
:103DC0000D4649E702460B4600203849FCF7A6FCA1
:103DD0004FF0030A04460D463EE7354B354E03EBE4
:103DE000CA03D3E90023FCF7B7F922462B46FCF7B8
:103DF000B3F906EBCA0602460B46D6E90001FCF70A
:103E0000ABF9BBF1000F04460D46BFF6E4AE01F17D
:103E100000431D46DFE61CA5D5E90045DBE600BFF3
:103E2000182D4454FB21F93F9C7500883CE4377EF3
:103E300011DA22E33AAD903FEB0D76244B7BA93F9C
:103E4000513DD0A0660DB13F6E204CC5CD45B73F6A
:103E5000FF8300922449C23F0D5555555555D53F16
:103E60002F6C6A2C44B4A2BF9AFDDE522DDEAD3F0A
:103E70006D9A74AFF2B0B33F711623FEC671BC3FAA
:103E8000C4EB98999999C93F182D4454FB21F9BF67
:103E9000FFFF0F440000F07FFFFFDB3F0000F03F1B
:103EA000FFFFF23F008003400000F83F0000F0BF3A
:103EB000383F0008583F000821F00043194670477A
:103EC000F8B500BFF8BC08BC9E467047F8B500BF07
:083ED000F8BC08BC9E467047D7
:103ED80000000000000000000102030406070809B2
:103EE8000000000001020304020304050607080994
:103EF8000A0B0C0D0E0F101001020000000000004C
:103F08000000000000000080182D4454FB210940E7
:103F1800182D4454FB2109C0182D4454FB21E9BF36
:103F2800D221337F7CD90240D221337F7CD902C091
:103F3800E2652F227F2B7A3C075C143326A6813C4E
:103F4800BDCBF07A8807703C075C143326A6913CF9
:103F58004FBB610567ACDD3F182D4454FB21E93F99
:103F68009BF681D20B73EF3F182D4454FB21F93F88
:043F78003501000807
:043F7C001101000827
:103F800000127A0010000000010000001000002064
:103F900000000000F40000205C010020C4010020AB
:103FA0000000000000000000000000000000000011
:103FB0000000000000000000000000000000000001
:103FC00000000000000000000000000000000000F1
:103FD00000000000000000000000000000000000E1
:103FE00059F3F8C21F6EA501000000000000F03F69
:04000005080018A532
:00000001FF
